{
  "address": "0xfc7a43fBa736B5E96E09A28f49fC3D96c102BeC0",
  "abi": [
    {
      "inputs": [
        {
          "internalType": "string",
          "name": "_newBaseUri",
          "type": "string"
        },
        {
          "internalType": "string",
          "name": "_metadata",
          "type": "string"
        },
        {
          "internalType": "uint256",
          "name": "_fee",
          "type": "uint256"
        }
      ],
      "stateMutability": "nonpayable",
      "type": "constructor"
    },
    {
      "anonymous": false,
      "inputs": [
        {
          "indexed": true,
          "internalType": "address",
          "name": "account",
          "type": "address"
        },
        {
          "indexed": true,
          "internalType": "address",
          "name": "operator",
          "type": "address"
        },
        {
          "indexed": false,
          "internalType": "bool",
          "name": "approved",
          "type": "bool"
        }
      ],
      "name": "ApprovalForAll",
      "type": "event"
    },
    {
      "anonymous": false,
      "inputs": [
        {
          "indexed": true,
          "internalType": "address",
          "name": "receiver",
          "type": "address"
        },
        {
          "indexed": true,
          "internalType": "uint256",
          "name": "tokenTier",
          "type": "uint256"
        },
        {
          "indexed": false,
          "internalType": "uint256",
          "name": "amount",
          "type": "uint256"
        }
      ],
      "name": "FundsDistributed",
      "type": "event"
    },
    {
      "anonymous": false,
      "inputs": [
        {
          "indexed": true,
          "internalType": "address",
          "name": "previousOwner",
          "type": "address"
        },
        {
          "indexed": true,
          "internalType": "address",
          "name": "newOwner",
          "type": "address"
        }
      ],
      "name": "OwnershipTransferred",
      "type": "event"
    },
    {
      "anonymous": false,
      "inputs": [
        {
          "indexed": false,
          "internalType": "address",
          "name": "account",
          "type": "address"
        }
      ],
      "name": "Paused",
      "type": "event"
    },
    {
      "anonymous": false,
      "inputs": [
        {
          "indexed": true,
          "internalType": "uint256",
          "name": "tokenId",
          "type": "uint256"
        },
        {
          "indexed": false,
          "internalType": "string",
          "name": "uriId",
          "type": "string"
        },
        {
          "indexed": false,
          "internalType": "bool",
          "name": "transferables",
          "type": "bool"
        }
      ],
      "name": "TierChange",
      "type": "event"
    },
    {
      "anonymous": false,
      "inputs": [
        {
          "indexed": true,
          "internalType": "address",
          "name": "operator",
          "type": "address"
        },
        {
          "indexed": true,
          "internalType": "address",
          "name": "from",
          "type": "address"
        },
        {
          "indexed": true,
          "internalType": "address",
          "name": "to",
          "type": "address"
        },
        {
          "indexed": false,
          "internalType": "uint256[]",
          "name": "ids",
          "type": "uint256[]"
        },
        {
          "indexed": false,
          "internalType": "uint256[]",
          "name": "values",
          "type": "uint256[]"
        }
      ],
      "name": "TransferBatch",
      "type": "event"
    },
    {
      "anonymous": false,
      "inputs": [
        {
          "indexed": true,
          "internalType": "address",
          "name": "operator",
          "type": "address"
        },
        {
          "indexed": true,
          "internalType": "address",
          "name": "from",
          "type": "address"
        },
        {
          "indexed": true,
          "internalType": "address",
          "name": "to",
          "type": "address"
        },
        {
          "indexed": false,
          "internalType": "uint256",
          "name": "id",
          "type": "uint256"
        },
        {
          "indexed": false,
          "internalType": "uint256",
          "name": "value",
          "type": "uint256"
        }
      ],
      "name": "TransferSingle",
      "type": "event"
    },
    {
      "anonymous": false,
      "inputs": [
        {
          "indexed": false,
          "internalType": "string",
          "name": "value",
          "type": "string"
        },
        {
          "indexed": true,
          "internalType": "uint256",
          "name": "id",
          "type": "uint256"
        }
      ],
      "name": "URI",
      "type": "event"
    },
    {
      "anonymous": false,
      "inputs": [
        {
          "indexed": false,
          "internalType": "address",
          "name": "account",
          "type": "address"
        }
      ],
      "name": "Unpaused",
      "type": "event"
    },
    {
      "inputs": [],
      "name": "FEE_PRECISION",
      "outputs": [
        {
          "internalType": "uint256",
          "name": "",
          "type": "uint256"
        }
      ],
      "stateMutability": "view",
      "type": "function"
    },
    {
      "inputs": [],
      "name": "TOKENS_PER_ETH",
      "outputs": [
        {
          "internalType": "uint256",
          "name": "",
          "type": "uint256"
        }
      ],
      "stateMutability": "view",
      "type": "function"
    },
    {
      "inputs": [
        {
          "internalType": "address[]",
          "name": "tokens",
          "type": "address[]"
        },
        {
          "internalType": "string[]",
          "name": "tierUris",
          "type": "string[]"
        },
        {
          "internalType": "uint256[]",
          "name": "threshold",
          "type": "uint256[]"
        }
      ],
      "name": "addBoxTokens",
      "outputs": [],
      "stateMutability": "nonpayable",
      "type": "function"
    },
    {
      "inputs": [
        {
          "internalType": "address",
          "name": "holder",
          "type": "address"
        }
      ],
      "name": "allBalancesOf",
      "outputs": [
        {
          "internalType": "uint256[]",
          "name": "balances",
          "type": "uint256[]"
        }
      ],
      "stateMutability": "view",
      "type": "function"
    },
    {
      "inputs": [
        {
          "internalType": "address",
          "name": "account",
          "type": "address"
        },
        {
          "internalType": "uint256",
          "name": "id",
          "type": "uint256"
        }
      ],
      "name": "balanceOf",
      "outputs": [
        {
          "internalType": "uint256",
          "name": "",
          "type": "uint256"
        }
      ],
      "stateMutability": "view",
      "type": "function"
    },
    {
      "inputs": [
        {
          "internalType": "address[]",
          "name": "accounts",
          "type": "address[]"
        },
        {
          "internalType": "uint256[]",
          "name": "ids",
          "type": "uint256[]"
        }
      ],
      "name": "balanceOfBatch",
      "outputs": [
        {
          "internalType": "uint256[]",
          "name": "",
          "type": "uint256[]"
        }
      ],
      "stateMutability": "view",
      "type": "function"
    },
    {
      "inputs": [
        {
          "internalType": "address",
          "name": "token",
          "type": "address"
        },
        {
          "internalType": "uint256",
          "name": "amount",
          "type": "uint256"
        }
      ],
      "name": "bondToMint",
      "outputs": [],
      "stateMutability": "nonpayable",
      "type": "function"
    },
    {
      "inputs": [],
      "name": "boxTokenCounter",
      "outputs": [
        {
          "internalType": "uint256",
          "name": "",
          "type": "uint256"
        }
      ],
      "stateMutability": "view",
      "type": "function"
    },
    {
      "inputs": [
        {
          "internalType": "address",
          "name": "",
          "type": "address"
        }
      ],
      "name": "boxTokenTiers",
      "outputs": [
        {
          "internalType": "uint256",
          "name": "id",
          "type": "uint256"
        },
        {
          "internalType": "uint256",
          "name": "amount",
          "type": "uint256"
        },
        {
          "internalType": "uint256",
          "name": "funds",
          "type": "uint256"
        },
        {
          "internalType": "uint256",
          "name": "distributed",
          "type": "uint256"
        },
        {
          "internalType": "bool",
          "name": "passedThreshold",
          "type": "bool"
        },
        {
          "internalType": "uint256",
          "name": "threshold",
          "type": "uint256"
        }
      ],
      "stateMutability": "view",
      "type": "function"
    },
    {
      "inputs": [
        {
          "internalType": "address",
          "name": "account",
          "type": "address"
        },
        {
          "internalType": "uint256",
          "name": "id",
          "type": "uint256"
        },
        {
          "internalType": "uint256",
          "name": "amount",
          "type": "uint256"
        }
      ],
      "name": "burn",
      "outputs": [],
      "stateMutability": "nonpayable",
      "type": "function"
    },
    {
      "inputs": [
        {
          "internalType": "address[]",
          "name": "accounts",
          "type": "address[]"
        },
        {
          "internalType": "uint256[]",
          "name": "tokenIds",
          "type": "uint256[]"
        },
        {
          "internalType": "uint256[]",
          "name": "amounts",
          "type": "uint256[]"
        }
      ],
      "name": "burnFromMultiple",
      "outputs": [],
      "stateMutability": "nonpayable",
      "type": "function"
    },
    {
      "inputs": [
        {
          "internalType": "string",
          "name": "_newBaseUri",
          "type": "string"
        }
      ],
      "name": "changeBaseUri",
      "outputs": [],
      "stateMutability": "nonpayable",
      "type": "function"
    },
    {
      "inputs": [
        {
          "internalType": "address[]",
          "name": "boxTokens",
          "type": "address[]"
        }
      ],
      "name": "claimGovernanceTokens",
      "outputs": [],
      "stateMutability": "nonpayable",
      "type": "function"
    },
    {
      "inputs": [
        {
          "internalType": "uint256",
          "name": "tokenId",
          "type": "uint256"
        },
        {
          "internalType": "string",
          "name": "uriId",
          "type": "string"
        },
        {
          "internalType": "bool",
          "name": "transferable",
          "type": "bool"
        },
        {
          "internalType": "address",
          "name": "boxToken",
          "type": "address"
        }
      ],
      "name": "createTokenTier",
      "outputs": [],
      "stateMutability": "nonpayable",
      "type": "function"
    },
    {
      "inputs": [
        {
          "internalType": "address payable",
          "name": "_receiver",
          "type": "address"
        },
        {
          "internalType": "uint256",
          "name": "_tier",
          "type": "uint256"
        },
        {
          "internalType": "uint256",
          "name": "_amount",
          "type": "uint256"
        }
      ],
      "name": "distribute",
      "outputs": [],
      "stateMutability": "nonpayable",
      "type": "function"
    },
    {
      "inputs": [],
      "name": "fee",
      "outputs": [
        {
          "internalType": "uint256",
          "name": "",
          "type": "uint256"
        }
      ],
      "stateMutability": "view",
      "type": "function"
    },
    {
      "inputs": [],
      "name": "getBoxTokens",
      "outputs": [
        {
          "internalType": "address[]",
          "name": "boxTokens",
          "type": "address[]"
        }
      ],
      "stateMutability": "view",
      "type": "function"
    },
    {
      "inputs": [
        {
          "internalType": "address",
          "name": "account",
          "type": "address"
        },
        {
          "internalType": "address",
          "name": "operator",
          "type": "address"
        }
      ],
      "name": "isApprovedForAll",
      "outputs": [
        {
          "internalType": "bool",
          "name": "",
          "type": "bool"
        }
      ],
      "stateMutability": "view",
      "type": "function"
    },
    {
      "inputs": [
        {
          "internalType": "address",
          "name": "account",
          "type": "address"
        },
        {
          "internalType": "uint256",
          "name": "id",
          "type": "uint256"
        },
        {
          "internalType": "uint256",
          "name": "amount",
          "type": "uint256"
        }
      ],
      "name": "mint",
      "outputs": [],
      "stateMutability": "nonpayable",
      "type": "function"
    },
    {
      "inputs": [
        {
          "internalType": "address[]",
          "name": "accounts",
          "type": "address[]"
        },
        {
          "internalType": "uint256[]",
          "name": "tokenIds",
          "type": "uint256[]"
        },
        {
          "internalType": "uint256[]",
          "name": "amounts",
          "type": "uint256[]"
        }
      ],
      "name": "mintToMultiple",
      "outputs": [],
      "stateMutability": "nonpayable",
      "type": "function"
    },
    {
      "inputs": [],
      "name": "owner",
      "outputs": [
        {
          "internalType": "address",
          "name": "",
          "type": "address"
        }
      ],
      "stateMutability": "view",
      "type": "function"
    },
    {
      "inputs": [],
      "name": "pause",
      "outputs": [],
      "stateMutability": "nonpayable",
      "type": "function"
    },
    {
      "inputs": [],
      "name": "paused",
      "outputs": [
        {
          "internalType": "bool",
          "name": "",
          "type": "bool"
        }
      ],
      "stateMutability": "view",
      "type": "function"
    },
    {
      "inputs": [],
      "name": "renounceOwnership",
      "outputs": [],
      "stateMutability": "nonpayable",
      "type": "function"
    },
    {
      "inputs": [
        {
          "internalType": "address",
          "name": "from",
          "type": "address"
        },
        {
          "internalType": "address",
          "name": "to",
          "type": "address"
        },
        {
          "internalType": "uint256[]",
          "name": "ids",
          "type": "uint256[]"
        },
        {
          "internalType": "uint256[]",
          "name": "amounts",
          "type": "uint256[]"
        },
        {
          "internalType": "bytes",
          "name": "data",
          "type": "bytes"
        }
      ],
      "name": "safeBatchTransferFrom",
      "outputs": [],
      "stateMutability": "nonpayable",
      "type": "function"
    },
    {
      "inputs": [
        {
          "internalType": "address",
          "name": "from",
          "type": "address"
        },
        {
          "internalType": "address",
          "name": "to",
          "type": "address"
        },
        {
          "internalType": "uint256",
          "name": "id",
          "type": "uint256"
        },
        {
          "internalType": "uint256",
          "name": "amount",
          "type": "uint256"
        },
        {
          "internalType": "bytes",
          "name": "data",
          "type": "bytes"
        }
      ],
      "name": "safeTransferFrom",
      "outputs": [],
      "stateMutability": "nonpayable",
      "type": "function"
    },
    {
      "inputs": [
        {
          "internalType": "address",
          "name": "operator",
          "type": "address"
        },
        {
          "internalType": "bool",
          "name": "approved",
          "type": "bool"
        }
      ],
      "name": "setApprovalForAll",
      "outputs": [],
      "stateMutability": "nonpayable",
      "type": "function"
    },
    {
      "inputs": [
        {
          "internalType": "uint256",
          "name": "_fee",
          "type": "uint256"
        }
      ],
      "name": "setFee",
      "outputs": [],
      "stateMutability": "nonpayable",
      "type": "function"
    },
    {
      "inputs": [
        {
          "internalType": "bytes4",
          "name": "interfaceId",
          "type": "bytes4"
        }
      ],
      "name": "supportsInterface",
      "outputs": [
        {
          "internalType": "bool",
          "name": "",
          "type": "bool"
        }
      ],
      "stateMutability": "view",
      "type": "function"
    },
    {
      "inputs": [
        {
          "internalType": "uint256",
          "name": "",
          "type": "uint256"
        }
      ],
      "name": "tokenTiers",
      "outputs": [
        {
          "internalType": "string",
          "name": "uriId",
          "type": "string"
        },
        {
          "internalType": "bool",
          "name": "transferable",
          "type": "bool"
        },
        {
          "internalType": "address",
          "name": "boxToken",
          "type": "address"
        }
      ],
      "stateMutability": "view",
      "type": "function"
    },
    {
      "inputs": [
        {
          "internalType": "address",
          "name": "from",
          "type": "address"
        },
        {
          "internalType": "address",
          "name": "to",
          "type": "address"
        },
        {
          "internalType": "uint256",
          "name": "id",
          "type": "uint256"
        },
        {
          "internalType": "uint256",
          "name": "amount",
          "type": "uint256"
        }
      ],
      "name": "transferFromWithoutData",
      "outputs": [],
      "stateMutability": "nonpayable",
      "type": "function"
    },
    {
      "inputs": [
        {
          "internalType": "address",
          "name": "newOwner",
          "type": "address"
        }
      ],
      "name": "transferOwnership",
      "outputs": [],
      "stateMutability": "nonpayable",
      "type": "function"
    },
    {
      "inputs": [],
      "name": "unpause",
      "outputs": [],
      "stateMutability": "nonpayable",
      "type": "function"
    },
    {
      "inputs": [
        {
          "internalType": "uint256[]",
          "name": "tokenIds",
          "type": "uint256[]"
        },
        {
          "internalType": "string[]",
          "name": "uriIds",
          "type": "string[]"
        }
      ],
      "name": "updateMultipleUriIdentifiers",
      "outputs": [],
      "stateMutability": "nonpayable",
      "type": "function"
    },
    {
      "inputs": [
        {
          "internalType": "uint256",
          "name": "tokenId",
          "type": "uint256"
        },
        {
          "internalType": "bool",
          "name": "transferable",
          "type": "bool"
        }
      ],
      "name": "updateTransferableStatus",
      "outputs": [],
      "stateMutability": "nonpayable",
      "type": "function"
    },
    {
      "inputs": [
        {
          "internalType": "uint256",
          "name": "tokenId",
          "type": "uint256"
        },
        {
          "internalType": "string",
          "name": "uriId",
          "type": "string"
        }
      ],
      "name": "updateUriIdentifier",
      "outputs": [],
      "stateMutability": "nonpayable",
      "type": "function"
    },
    {
      "inputs": [
        {
          "internalType": "uint256",
          "name": "tokenId",
          "type": "uint256"
        }
      ],
      "name": "uri",
      "outputs": [
        {
          "internalType": "string",
          "name": "",
          "type": "string"
        }
      ],
      "stateMutability": "view",
      "type": "function"
    },
    {
      "inputs": [
        {
          "internalType": "address",
          "name": "token",
          "type": "address"
        },
        {
          "internalType": "uint256",
          "name": "amount",
          "type": "uint256"
        }
      ],
      "name": "withdraw",
      "outputs": [],
      "stateMutability": "nonpayable",
      "type": "function"
    },
    {
      "stateMutability": "payable",
      "type": "receive"
    }
  ],
  "transactionHash": "0xb86de57fb6b8ffe4ff10793b83b6643b5f10398b886f7f503de284955f594969",
  "args": [
    "https://ipfs.io/ipfs/",
    "QmeZgUdRrPuj9dXpZ8S3PLGRaL8Q3pxCrzpDoD1aorRYER",
    "100000000000000000"
  ],
  "numDeployments": 1,
  "solcInputHash": "f4d841195c44926cac6213170478385e",
  "bytecode": "0x60806040523480156200001157600080fd5b5060405162004a6638038062004a668339810160408190526200003491620004a3565b828062000041336200007a565b6200004c81620000ca565b50506005805460ff1916905560016007556008819055620000716000838180620000e3565b505050620005d6565b600080546001600160a01b038381166001600160a01b0319831681178455604051919092169283917f8be0079c531659141344cd1fd0a4f28419497f9722a3daafe3b4186f6b6457e09190a35050565b8051620000df9060039060208401906200036e565b5050565b6000546001600160a01b03163314620001435760405162461bcd60e51b815260206004820181905260248201527f4f776e61626c653a2063616c6c6572206973206e6f7420746865206f776e657260448201526064015b60405180910390fd5b826200014e81511590565b156200019d5760405162461bcd60e51b815260206004820152601660248201527f537472696e672063616e6e6f7420626520656d7074790000000000000000000060448201526064016200013a565b60008581526004602052604090208054620002499190620001be9062000583565b80601f0160208091040260200160405190810160405280929190818152602001828054620001ec9062000583565b80156200023d5780601f1062000211576101008083540402835291602001916200023d565b820191906000526020600020905b8154815290600101906020018083116200021f57829003601f168201915b50506200036992505050565b620002975760405162461bcd60e51b815260206004820152601f60248201527f5469657220616c72656164792065786973747320666f7220746f6b656e49640060448201526064016200013a565b604080516060810182528581528415156020808301919091526001600160a01b03851682840152600088815260048252929092208151805192939192620002e292849201906200036e565b506020820151600190910180546040938401516001600160a01b031661010002610100600160a81b0319931515939093166001600160a81b0319909116179190911790555185907f684099fd398949dc782e92c48c5b6b47f1e1f6cadc408d22d5159752d6c4bced906200035a908790879062000513565b60405180910390a25050505050565b511590565b8280546200037c9062000583565b90600052602060002090601f016020900481019282620003a05760008555620003eb565b82601f10620003bb57805160ff1916838001178555620003eb565b82800160010185558215620003eb579182015b82811115620003eb578251825591602001919060010190620003ce565b50620003f9929150620003fd565b5090565b5b80821115620003f95760008155600101620003fe565b600082601f83011262000425578081fd5b81516001600160401b0380821115620004425762000442620005c0565b604051601f8301601f19908116603f011681019082821181831017156200046d576200046d620005c0565b8160405283815286602085880101111562000486578485fd5b6200049984602083016020890162000550565b9695505050505050565b600080600060608486031215620004b8578283fd5b83516001600160401b0380821115620004cf578485fd5b620004dd8783880162000414565b94506020860151915080821115620004f3578384fd5b50620005028682870162000414565b925050604084015190509250925092565b60408152600083518060408401526200053481606085016020880162000550565b921515602083015250601f91909101601f191601606001919050565b60005b838110156200056d57818101518382015260200162000553565b838111156200057d576000848401525b50505050565b600181811c908216806200059857607f821691505b60208210811415620005ba57634e487b7160e01b600052602260045260246000fd5b50919050565b634e487b7160e01b600052604160045260246000fd5b61448080620005e66000396000f3fe6080604052600436106102285760003560e01c80638da5cb5b11610123578063dd75d6d6116100ab578063f242432a1161006f578063f242432a14610892578063f2fde38b146108b2578063f3fef3a3146108d2578063f5298aca146108f2578063fa6cca101461091257600080fd5b8063dd75d6d6146107d7578063ddca3f43146107f7578063e2c92a521461080d578063e63a391f1461082d578063e985e9c51461084957600080fd5b8063a22cb465116100f2578063a22cb4651461074b578063aac01cbd1461076b578063bc6e660414610781578063c1cef73614610797578063d2047b54146107b757600080fd5b80638da5cb5b1461065e5780638e7cb1791461068657806397c7cc871461070b5780639f6febaa1461072b57600080fd5b80634e1273f4116101b1578063732a4d3111610175578063732a4d31146105b8578063818f2e42146105da5780638273a4111461060957806384385b6b146106295780638456cb591461064957600080fd5b80634e1273f41461051e5780635969caf11461054b5780635c975abb1461056b57806369fe0e2d14610583578063715018a6146105a357600080fd5b8063156e29f6116101f8578063156e29f6146104895780632eb2c2d6146104a9578063351521cd146104c95780633f4ba83a146104e9578063492d306b146104fe57600080fd5b8062fdd58e146103d957806301ffc9a71461040c578063036789d11461043c5780630e89341c1461045c57600080fd5b366103d457336000908152600660205260409020541561037f57336001600160a01b03166318160ddd6040518163ffffffff1660e01b815260040160206040518083038186803b15801561027b57600080fd5b505afa15801561028f573d6000803e3d6000fd5b505050506040513d601f19601f820116820180604052508101906102b39190613b78565b33600090815260066020526040902060010155600854670de0b6b3a7640000906102dd9034614223565b6102e79190614203565b6102f19034614242565b33600090815260066020526040812060020180549091906103139084906141eb565b9091555050600854670de0b6b3a76400009061032f9034614223565b6103399190614203565b600080805260066020527f54cdd369e4e8a8515e52ca72ec816c2101831ad1f18bf44102ed171459c9b4fa80549091906103749084906141eb565b909155506103d29050565b600080805260066020527f54cdd369e4e8a8515e52ca72ec816c2101831ad1f18bf44102ed171459c9b4fa80546060923492916103bd9084906141eb565b909155506103d090503360003484610932565b505b005b600080fd5b3480156103e557600080fd5b506103f96103f4366004613867565b610a0d565b6040519081526020015b60405180910390f35b34801561041857600080fd5b5061042c610427366004613ae9565b610aa1565b6040519015158152602001610403565b34801561044857600080fd5b506103d2610457366004613a65565b610af3565b34801561046857600080fd5b5061047c610477366004613b60565b610bc3565b6040516104039190613e77565b34801561049557600080fd5b506103d26104a4366004613892565b610c84565b3480156104b557600080fd5b506103d26104c43660046136e6565b610d24565b3480156104d557600080fd5b506103d26104e43660046138a6565b610db4565b3480156104f557600080fd5b506103d2610f9e565b34801561050a57600080fd5b506103d2610519366004613b21565b610fd2565b34801561052a57600080fd5b5061053e610539366004613a05565b61109f565b6040516104039190613dfe565b34801561055757600080fd5b506103d2610566366004613b90565b611200565b34801561057757600080fd5b5060055460ff1661042c565b34801561058f57600080fd5b506103d261059e366004613b60565b6112c5565b3480156105af57600080fd5b506103d26112f4565b3480156105c457600080fd5b506105cd611328565b6040516104039190613db1565b3480156105e657600080fd5b506105fa6105f5366004613b60565b61140f565b60405161040393929190613eae565b34801561061557600080fd5b5061053e61062436600461365e565b6114c7565b34801561063557600080fd5b506103d261064436600461378f565b611580565b34801561065557600080fd5b506103d261158f565b34801561066a57600080fd5b506000546040516001600160a01b039091168152602001610403565b34801561069257600080fd5b506106dc6106a136600461365e565b600660205260009081526040902080546001820154600283015460038401546004850154600590950154939492939192909160ff9091169086565b6040805196875260208701959095529385019290925260608401521515608083015260a082015260c001610403565b34801561071757600080fd5b506103d2610726366004613bb4565b6115c1565b34801561073757600080fd5b506103d2610746366004613867565b6115f6565b34801561075757600080fd5b506103d261076636600461383a565b611754565b34801561077757600080fd5b506103f960075481565b34801561078d57600080fd5b506103f96103e881565b3480156107a357600080fd5b506103d26107b2366004613bfd565b611763565b3480156107c357600080fd5b506103d26107d23660046138a6565b6118ec565b3480156107e357600080fd5b506103d26107f2366004613975565b611ada565b34801561080357600080fd5b506103f960085481565b34801561081957600080fd5b506103d261082836600461367a565b611cc1565b34801561083957600080fd5b506103f9670de0b6b3a764000081565b34801561085557600080fd5b5061042c6108643660046136ae565b6001600160a01b03918216600090815260026020908152604080832093909416825291909152205460ff1690565b34801561089e57600080fd5b506103d26108ad3660046137d4565b611e1f565b3480156108be57600080fd5b506103d26108cd36600461365e565b611e98565b3480156108de57600080fd5b506103d26108ed366004613867565b611f33565b3480156108fe57600080fd5b506103d261090d366004613892565b612233565b34801561091e57600080fd5b506103d261092d36600461393b565b6122d0565b6000838152600460205260409020805484916109d491610951906142a8565b80601f016020809104026020016040519081016040528092919081815260200182805461097d906142a8565b80156109ca5780601f1061099f576101008083540402835291602001916109ca565b820191906000526020600020905b8154815290600101906020018083116109ad57829003601f168201915b5050505050511590565b156109fa5760405162461bcd60e51b81526004016109f190614010565b60405180910390fd5b610a0685858585612496565b5050505050565b60006001600160a01b038316610a795760405162461bcd60e51b815260206004820152602b60248201527f455243313135353a2062616c616e636520717565727920666f7220746865207a60448201526a65726f206164647265737360a81b60648201526084016109f1565b5060009081526001602090815260408083206001600160a01b03949094168352929052205490565b60006001600160e01b03198216636cdb3d1360e11b1480610ad257506001600160e01b031982166303a24d0760e21b145b80610aed57506301ffc9a760e01b6001600160e01b03198316145b92915050565b6000546001600160a01b03163314610b1d5760405162461bcd60e51b81526004016109f1906140f6565b828114610b3c5760405162461bcd60e51b81526004016109f190613fe2565b60005b60ff8116841115610a0657610bb185858360ff16818110610b7057634e487b7160e01b600052603260045260246000fd5b9050602002013584848460ff16818110610b9a57634e487b7160e01b600052603260045260246000fd5b9050602002810190610bac9190614184565b6125a8565b80610bbb81614324565b915050610b3f565b60606000610bd0836126a8565b60008481526004602052604090208054919250610c7d91610bf0906142a8565b80601f0160208091040260200160405190810160405280929190818152602001828054610c1c906142a8565b8015610c695780601f10610c3e57610100808354040283529160200191610c69565b820191906000526020600020905b815481529060010190602001808311610c4c57829003601f168201915b50505050508261273c90919063ffffffff16565b9392505050565b6000546001600160a01b03163314610cae5760405162461bcd60e51b81526004016109f1906140f6565b600082815260046020526040902060010154829061010090046001600160a01b031615610d165760405162461bcd60e51b81526020600482015260166024820152756f6e6c79206f6e2067656e6572616c20746f6b656e7360501b60448201526064016109f1565b6060610a0685858584610932565b6001600160a01b038516331480610d405750610d408533610864565b610da75760405162461bcd60e51b815260206004820152603260248201527f455243313135353a207472616e736665722063616c6c6572206973206e6f74206044820152711bdddb995c881b9bdc88185c1c1c9bdd995960721b60648201526084016109f1565b610a068585858585612768565b6000546001600160a01b03163314610dde5760405162461bcd60e51b81526004016109f1906140f6565b85858585858580806020026020016040519081016040528093929190818152602001838360200280828437600092019190915250505084831490508015610e255750805182145b610e415760405162461bcd60e51b81526004016109f190613fe2565b60005b8a811015610f905760006004818c8c85818110610e7157634e487b7160e01b600052603260045260246000fd5b90506020020135815260200190815260200160002060010160019054906101000a90046001600160a01b03166001600160a01b031614610ef35760405162461bcd60e51b815260206004820152601c60248201527f43616e206275726e206f6e6c792067656e6572616c20746f6b656e730000000060448201526064016109f1565b610f7e8c8c83818110610f1657634e487b7160e01b600052603260045260246000fd5b9050602002016020810190610f2b919061365e565b8b8b84818110610f4b57634e487b7160e01b600052603260045260246000fd5b905060200201358a8a85818110610f7257634e487b7160e01b600052603260045260246000fd5b90506020020135612972565b80610f8881614309565b915050610e44565b505050505050505050505050565b6000546001600160a01b03163314610fc85760405162461bcd60e51b81526004016109f1906140f6565b610fd06129b9565b565b6000546001600160a01b03163314610ffc5760405162461bcd60e51b81526004016109f1906140f6565b81818080601f01602080910402602001604051908101604052809392919081815260200183838082843760009201919091525061103e92508391506124919050565b1561105b5760405162461bcd60e51b81526004016109f190614154565b61109a83838080601f016020809104026020016040519081016040528093929190818152602001838380828437600092019190915250612a4c92505050565b505050565b606081518351146111045760405162461bcd60e51b815260206004820152602960248201527f455243313135353a206163636f756e747320616e6420696473206c656e677468604482015268040dad2e6dac2e8c6d60bb1b60648201526084016109f1565b600083516001600160401b0381111561112d57634e487b7160e01b600052604160045260246000fd5b604051908082528060200260200182016040528015611156578160200160208202803683370190505b50905060005b84518110156111f8576111bd85828151811061118857634e487b7160e01b600052603260045260246000fd5b60200260200101518583815181106111b057634e487b7160e01b600052603260045260246000fd5b6020026020010151610a0d565b8282815181106111dd57634e487b7160e01b600052603260045260246000fd5b60209081029190910101526111f181614309565b905061115c565b509392505050565b6000546001600160a01b0316331461122a5760405162461bcd60e51b81526004016109f1906140f6565b60008281526004602052604090208054839161124991610951906142a8565b156112665760405162461bcd60e51b81526004016109f190614010565b6000838152600460205260409081902060018101805460ff1916851515179055905184917f684099fd398949dc782e92c48c5b6b47f1e1f6cadc408d22d5159752d6c4bced916112b891908690613ee1565b60405180910390a2505050565b6000546001600160a01b031633146112ef5760405162461bcd60e51b81526004016109f1906140f6565b600855565b6000546001600160a01b0316331461131e5760405162461bcd60e51b81526004016109f1906140f6565b610fd06000612a5f565b60606007546001600160401b0381111561135257634e487b7160e01b600052604160045260246000fd5b60405190808252806020026020018201604052801561137b578160200160208202803683370190505b50905060015b6007548160ff161161140b5760ff8116600090815260046020526040902060019081015461010090046001600160a01b03169083906113c09084614259565b60ff16815181106113e157634e487b7160e01b600052603260045260246000fd5b6001600160a01b03909216602092830291909101909101528061140381614324565b915050611381565b5090565b60046020526000908152604090208054819061142a906142a8565b80601f0160208091040260200160405190810160405280929190818152602001828054611456906142a8565b80156114a35780601f10611478576101008083540402835291602001916114a3565b820191906000526020600020905b81548152906001019060200180831161148657829003601f168201915b5050506001909301549192505060ff8116906001600160a01b036101009091041683565b60606007546001600160401b038111156114f157634e487b7160e01b600052604160045260246000fd5b60405190808252806020026020018201604052801561151a578160200160208202803683370190505b50905060005b6007548160ff16101561157a5761153a838260ff16610a0d565b828260ff168151811061155d57634e487b7160e01b600052603260045260246000fd5b60209081029190910101528061157281614324565b915050611520565b50919050565b6060610a068585858585612aaf565b6000546001600160a01b031633146115b95760405162461bcd60e51b81526004016109f1906140f6565b610fd0612bd0565b6000546001600160a01b031633146115eb5760405162461bcd60e51b81526004016109f1906140f6565b61109a8383836125a8565b60055460ff16156116195760405162461bcd60e51b81526004016109f19061403d565b6001600160a01b03821660009081526006602052604090205482906116785760405162461bcd60e51b815260206004820152601560248201527424ba1034b9903737ba1030903137bc103a37b5b2b760591b60448201526064016109f1565b6040516323b872dd60e01b8152336004820152306024820152604481018390526001600160a01b038416906323b872dd90606401602060405180830381600087803b1580156116c657600080fd5b505af11580156116da573d6000803e3d6000fd5b505050506040513d601f19601f820116820180604052508101906116fe9190613acd565b61171a5760405162461bcd60e51b81526004016109f19061412b565b6001600160a01b03831660009081526006602052604090205460609061174e9033906117486103e887614203565b84610932565b50505050565b61175f338383612c28565b5050565b6000546001600160a01b0316331461178d5760405162461bcd60e51b81526004016109f1906140f6565b8261179781511590565b156117b45760405162461bcd60e51b81526004016109f190614154565b600085815260046020526040902080546117d29190610951906142a8565b61181e5760405162461bcd60e51b815260206004820152601f60248201527f5469657220616c72656164792065786973747320666f7220746f6b656e49640060448201526064016109f1565b604080516060810182528581528415156020808301919091526001600160a01b03851682840152600088815260048252929092208151805192939192611867928492019061336d565b506020820151600190910180546040938401516001600160a01b031661010002610100600160a81b0319931515939093166001600160a81b0319909116179190911790555185907f684099fd398949dc782e92c48c5b6b47f1e1f6cadc408d22d5159752d6c4bced906118dd9087908790613e8a565b60405180910390a25050505050565b6000546001600160a01b031633146119165760405162461bcd60e51b81526004016109f1906140f6565b8585858585858080602002602001604051908101604052809392919081815260200183836020028082843760009201919091525050508483149050801561195d5750805182145b6119795760405162461bcd60e51b81526004016109f190613fe2565b606060005b8b811015611acb5760006004818d8d858181106119ab57634e487b7160e01b600052603260045260246000fd5b90506020020135815260200190815260200160002060010160019054906101000a90046001600160a01b03166001600160a01b031614611a2d5760405162461bcd60e51b815260206004820152601c60248201527f43616e206d696e74206f6e6c792067656e6572616c20746f6b656e730000000060448201526064016109f1565b611ab98d8d83818110611a5057634e487b7160e01b600052603260045260246000fd5b9050602002016020810190611a65919061365e565b8c8c84818110611a8557634e487b7160e01b600052603260045260246000fd5b905060200201358b8b85818110611aac57634e487b7160e01b600052603260045260246000fd5b9050602002013585610932565b80611ac381614309565b91505061197e565b50505050505050505050505050565b6000546001600160a01b03163314611b045760405162461bcd60e51b81526004016109f1906140f6565b60075460005b86518160ff161015611cb6576000878260ff1681518110611b3b57634e487b7160e01b600052603260045260246000fd5b6020026020010151905060066000826001600160a01b03166001600160a01b0316815260200190815260200160002060000154600014611baf5760405162461bcd60e51b815260206004820152600f60248201526e222aa82624a1a0aa22afaa27a5a2a760891b60448201526064016109f1565b6001600160a01b0381166000908152600660205260409020839055848460ff8416818110611bed57634e487b7160e01b600052603260045260246000fd5b9050602002013560066000836001600160a01b03166001600160a01b0316815260200190815260200160002060050181905550611c958388888560ff16818110611c4757634e487b7160e01b600052603260045260246000fd5b9050602002810190611c599190614184565b8080601f016020809104026020016040519081016040528093929190818152602001838380828437600092018290525092508691506117639050565b82611c9f81614309565b935050508080611cae90614324565b915050611b0a565b506007555050505050565b6000546001600160a01b03163314611ceb5760405162461bcd60e51b81526004016109f1906140f6565b60008281526004602090815260408083206001015461010090046001600160a01b031683526006909152902081611d5c5760405162461bcd60e51b81526020600482015260156024820152746e6f7468696e6720746f206469737472696275746560581b60448201526064016109f1565b8181600301548260020154611d719190614242565b1015611db15760405162461bcd60e51b815260206004820152600f60248201526e657863656564732062616c616e636560881b60448201526064016109f1565b81816003016000828254611dc591906141eb565b90915550611dd590508483612d09565b82846001600160a01b03167f080babe757d4e5c7db3b7bd10606a7bf07a9857f660977ada6ca7a4d329376c884604051611e1191815260200190565b60405180910390a350505050565b6000546001600160a01b0316331480611e4057506001600160a01b03851633145b80611e505750611e508533610864565b611e8b5760405162461bcd60e51b815260206004820152600c60248201526b155b985d5d1a1bdc9a5e995960a21b60448201526064016109f1565b610a068585858585612aaf565b6000546001600160a01b03163314611ec25760405162461bcd60e51b81526004016109f1906140f6565b6001600160a01b038116611f275760405162461bcd60e51b815260206004820152602660248201527f4f776e61626c653a206e6577206f776e657220697320746865207a65726f206160448201526564647265737360d01b60648201526084016109f1565b611f3081612a5f565b50565b60055460ff1615611f565760405162461bcd60e51b81526004016109f19061403d565b6001600160a01b0382166000908152600660205260409020548290611fb55760405162461bcd60e51b815260206004820152601560248201527424ba1034b9903737ba1030903137bc103a37b5b2b760591b60448201526064016109f1565b6000600854670de0b6b3a7640000611fcd9190614242565b6001600160a01b038516600090815260066020526040902060020154611ffc90670de0b6b3a764000090614223565b6120069190614203565b6001600160a01b03851660009081526006602052604090206005015490915081106120995760405162461bcd60e51b815260206004820152603d60248201527f43616e207769746864726177206f6e6c792066756e647320666f7220746f6b6560448201527f6e732074686174206469646e27742070617373207468726573686f6c6400000060648201526084016109f1565b6001600160a01b0384166000908152600660205260408120600101546120bf8386614223565b6120c99190614203565b9050670de0b6b3a7640000600854826120e29190614223565b6120ec9190614203565b6120f69082614242565b6001600160a01b03861660009081526006602052604081206002018054909190612121908490614242565b9091555050600854670de0b6b3a76400009061213d9083614223565b6121479190614203565b600080805260066020527f54cdd369e4e8a8515e52ca72ec816c2101831ad1f18bf44102ed171459c9b4fa8054909190612182908490614242565b90915550506040516323b872dd60e01b8152336004820152306024820152604481018590526001600160a01b038616906323b872dd90606401602060405180830381600087803b1580156121d557600080fd5b505af11580156121e9573d6000803e3d6000fd5b505050506040513d601f19601f8201168201806040525081019061220d9190613acd565b6122295760405162461bcd60e51b81526004016109f19061412b565b610a063382612d09565b6000546001600160a01b0316331461225d5760405162461bcd60e51b81526004016109f1906140f6565b600082815260046020526040902060010154829061010090046001600160a01b0316156122c55760405162461bcd60e51b81526020600482015260166024820152756f6e6c79206f6e2067656e6572616c20746f6b656e7360501b60448201526064016109f1565b61174e848484612972565b60055460ff16156122f35760405162461bcd60e51b81526004016109f19061403d565b60606000805b83518160ff16101561174e57838160ff168151811061232857634e487b7160e01b600052603260045260246000fd5b60209081029190910101516040516370a0823160e01b81523360048201529092506000906001600160a01b038416906370a082319060240160206040518083038186803b15801561237857600080fd5b505afa15801561238c573d6000803e3d6000fd5b505050506040513d601f19601f820116820180604052508101906123b09190613b78565b6001600160a01b038416600081815260066020526040908190205490516323b872dd60e01b815233600482015230602482015260448101849052929350916323b872dd90606401602060405180830381600087803b15801561241157600080fd5b505af1158015612425573d6000803e3d6000fd5b505050506040513d601f19601f820116820180604052508101906124499190613acd565b6124655760405162461bcd60e51b81526004016109f19061412b565b61247c33826124766103e886614203565b88610932565b5050808061248990614324565b9150506122f9565b511590565b6001600160a01b0384166124f65760405162461bcd60e51b815260206004820152602160248201527f455243313135353a206d696e7420746f20746865207a65726f206164647265736044820152607360f81b60648201526084016109f1565b336125168160008761250788612e22565b61251088612e22565b87612e7b565b60008481526001602090815260408083206001600160a01b0389168452909152812080548592906125489084906141eb565b909155505060408051858152602081018590526001600160a01b0380881692600092918516917fc3d58168c5ae7397731d063d5bbf3d657854427343f4c083240f7aacaa2d0f62910160405180910390a4610a0681600087878787612fbb565b6000838152600460205260409020805484916125c791610951906142a8565b156125e45760405162461bcd60e51b81526004016109f190614010565b82828080601f01602080910402602001604051908101604052809392919081815260200183838082843760009201919091525061262692508391506124919050565b156126435760405162461bcd60e51b81526004016109f190614154565b600085815260046020526040902061265c9085856133ed565b506000858152600460205260409081902060010154905186917f684099fd398949dc782e92c48c5b6b47f1e1f6cadc408d22d5159752d6c4bced916118dd918891889160ff1690613e3f565b6060600380546126b7906142a8565b80601f01602080910402602001604051908101604052809291908181526020018280546126e3906142a8565b80156127305780601f1061270557610100808354040283529160200191612730565b820191906000526020600020905b81548152906001019060200180831161271357829003601f168201915b50505050509050919050565b60608282604051602001612751929190613cdf565b604051602081830303815290604052905092915050565b81518351146127ca5760405162461bcd60e51b815260206004820152602860248201527f455243313135353a2069647320616e6420616d6f756e7473206c656e677468206044820152670dad2e6dac2e8c6d60c31b60648201526084016109f1565b6001600160a01b0384166127f05760405162461bcd60e51b81526004016109f190614067565b336127ff818787878787612e7b565b60005b845181101561290457600085828151811061282d57634e487b7160e01b600052603260045260246000fd5b60200260200101519050600085838151811061285957634e487b7160e01b600052603260045260246000fd5b60209081029190910181015160008481526001835260408082206001600160a01b038e1683529093529190912054909150818110156128aa5760405162461bcd60e51b81526004016109f1906140ac565b60008381526001602090815260408083206001600160a01b038e8116855292528083208585039055908b168252812080548492906128e99084906141eb565b92505081905550505050806128fd90614309565b9050612802565b50846001600160a01b0316866001600160a01b0316826001600160a01b03167f4a39dc06d4c0dbc64b70af90fd698a233a518aa5d07e595d983b8c0526c8f7fb8787604051612954929190613e11565b60405180910390a461296a818787878787613126565b505050505050565b60008281526004602052604090208054839161299191610951906142a8565b156129ae5760405162461bcd60e51b81526004016109f190614010565b61174e8484846131f0565b60055460ff16612a025760405162461bcd60e51b815260206004820152601460248201527314185d5cd8589b194e881b9bdd081c185d5cd95960621b60448201526064016109f1565b6005805460ff191690557f5db9ee0a495bf2e6ff9c91a7834c1ba4fdd244a5e8aa4e537bd38aeae4b073aa335b6040516001600160a01b03909116815260200160405180910390a1565b805161175f90600390602084019061336d565b600080546001600160a01b038381166001600160a01b0319831681178455604051919092169283917f8be0079c531659141344cd1fd0a4f28419497f9722a3daafe3b4186f6b6457e09190a35050565b6001600160a01b038416612ad55760405162461bcd60e51b81526004016109f190614067565b33612ae581878761250788612e22565b60008481526001602090815260408083206001600160a01b038a16845290915290205483811015612b285760405162461bcd60e51b81526004016109f1906140ac565b60008581526001602090815260408083206001600160a01b038b8116855292528083208785039055908816825281208054869290612b679084906141eb565b909155505060408051868152602081018690526001600160a01b03808916928a821692918616917fc3d58168c5ae7397731d063d5bbf3d657854427343f4c083240f7aacaa2d0f62910160405180910390a4612bc7828888888888612fbb565b50505050505050565b60055460ff1615612bf35760405162461bcd60e51b81526004016109f19061403d565b6005805460ff191660011790557f62e78cea01bee320cd4e420270b5ea74000d11b0c9f74754ebdbfc544b05a258612a2f3390565b816001600160a01b0316836001600160a01b03161415612c9c5760405162461bcd60e51b815260206004820152602960248201527f455243313135353a2073657474696e6720617070726f76616c20737461747573604482015268103337b91039b2b63360b91b60648201526084016109f1565b6001600160a01b03838116600081815260026020908152604080832094871680845294825291829020805460ff191686151590811790915591519182527f17307eab39ab6107e8899845ad3d59bd9653f200f220920489ca2b5937696c31910160405180910390a3505050565b80471015612d595760405162461bcd60e51b815260206004820152601d60248201527f416464726573733a20696e73756666696369656e742062616c616e636500000060448201526064016109f1565b6000826001600160a01b03168260405160006040518083038185875af1925050503d8060008114612da6576040519150601f19603f3d011682016040523d82523d6000602084013e612dab565b606091505b505090508061109a5760405162461bcd60e51b815260206004820152603a60248201527f416464726573733a20756e61626c6520746f2073656e642076616c75652c207260448201527f6563697069656e74206d6179206861766520726576657274656400000000000060648201526084016109f1565b60408051600180825281830190925260609160009190602080830190803683370190505090508281600081518110612e6a57634e487b7160e01b600052603260045260246000fd5b602090810291909101015292915050565b6001600160a01b03841615801590612e9b57506001600160a01b03851615155b1561296a576000546001600160a01b0316331480612ec157506001600160a01b03851633145b80612ed15750612ed18533610864565b612f0c5760405162461bcd60e51b815260206004820152600c60248201526b155b985d5d1a1bdc9a5e995960a21b60448201526064016109f1565b60005b8351811015612bc75760046000858381518110612f3c57634e487b7160e01b600052603260045260246000fd5b60209081029190910181015182528101919091526040016000206001015460ff16612fa95760405162461bcd60e51b815260206004820152601f60248201527f5472616e736665722064697361626c656420666f72207468697320746965720060448201526064016109f1565b80612fb381614309565b915050612f0f565b6001600160a01b0384163b1561296a5760405163f23a6e6160e01b81526001600160a01b0385169063f23a6e6190612fff9089908990889088908890600401613d6c565b602060405180830381600087803b15801561301957600080fd5b505af1925050508015613049575060408051601f3d908101601f1916820190925261304691810190613b05565b60015b6130f657613055614370565b806308c379a0141561308f575061306a614388565b806130755750613091565b8060405162461bcd60e51b81526004016109f19190613e77565b505b60405162461bcd60e51b815260206004820152603460248201527f455243313135353a207472616e7366657220746f206e6f6e20455243313135356044820152732932b1b2b4bb32b91034b6b83632b6b2b73a32b960611b60648201526084016109f1565b6001600160e01b0319811663f23a6e6160e01b14612bc75760405162461bcd60e51b81526004016109f190613f9a565b6001600160a01b0384163b1561296a5760405163bc197c8160e01b81526001600160a01b0385169063bc197c819061316a9089908990889088908890600401613d0e565b602060405180830381600087803b15801561318457600080fd5b505af19250505080156131b4575060408051601f3d908101601f191682019092526131b191810190613b05565b60015b6131c057613055614370565b6001600160e01b0319811663bc197c8160e01b14612bc75760405162461bcd60e51b81526004016109f190613f9a565b6001600160a01b0383166132525760405162461bcd60e51b815260206004820152602360248201527f455243313135353a206275726e2066726f6d20746865207a65726f206164647260448201526265737360e81b60648201526084016109f1565b336132818185600061326387612e22565b61326c87612e22565b60405180602001604052806000815250612e7b565b60008381526001602090815260408083206001600160a01b0388168452909152902054828110156133005760405162461bcd60e51b8152602060048201526024808201527f455243313135353a206275726e20616d6f756e7420657863656564732062616c604482015263616e636560e01b60648201526084016109f1565b60008481526001602090815260408083206001600160a01b03898116808652918452828520888703905582518981529384018890529092908616917fc3d58168c5ae7397731d063d5bbf3d657854427343f4c083240f7aacaa2d0f62910160405180910390a45050505050565b828054613379906142a8565b90600052602060002090601f01602090048101928261339b57600085556133e1565b82601f106133b457805160ff19168380011785556133e1565b828001600101855582156133e1579182015b828111156133e15782518255916020019190600101906133c6565b5061140b929150613461565b8280546133f9906142a8565b90600052602060002090601f01602090048101928261341b57600085556133e1565b82601f106134345782800160ff198235161785556133e1565b828001600101855582156133e1579182015b828111156133e1578235825591602001919060010190613446565b5b8082111561140b5760008155600101613462565b60006001600160401b0383111561348f5761348f61435a565b6040516134a6601f8501601f1916602001826142dd565b8091508381528484840111156134bb57600080fd5b83836020830137600060208583010152509392505050565b60008083601f8401126134e4578182fd5b5081356001600160401b038111156134fa578182fd5b6020830191508360208260051b850101111561351557600080fd5b9250929050565b600082601f83011261352c578081fd5b81356020613539826141c8565b60405161354682826142dd565b8381528281019150858301600585901b87018401881015613565578586fd5b855b8581101561358c57813561357a81614411565b84529284019290840190600101613567565b5090979650505050505050565b600082601f8301126135a9578081fd5b813560206135b6826141c8565b6040516135c382826142dd565b8381528281019150858301600585901b870184018810156135e2578586fd5b855b8581101561358c578135845292840192908401906001016135e4565b600082601f830112613610578081fd5b610c7d83833560208501613476565b60008083601f840112613630578182fd5b5081356001600160401b03811115613646578182fd5b60208301915083602082850101111561351557600080fd5b60006020828403121561366f578081fd5b8135610c7d81614411565b60008060006060848603121561368e578182fd5b833561369981614411565b95602085013595506040909401359392505050565b600080604083850312156136c0578182fd5b82356136cb81614411565b915060208301356136db81614411565b809150509250929050565b600080600080600060a086880312156136fd578081fd5b853561370881614411565b9450602086013561371881614411565b935060408601356001600160401b0380821115613733578283fd5b61373f89838a01613599565b94506060880135915080821115613754578283fd5b61376089838a01613599565b93506080880135915080821115613775578283fd5b5061378288828901613600565b9150509295509295909350565b600080600080608085870312156137a4578182fd5b84356137af81614411565b935060208501356137bf81614411565b93969395505050506040820135916060013590565b600080600080600060a086880312156137eb578283fd5b85356137f681614411565b9450602086013561380681614411565b9350604086013592506060860135915060808601356001600160401b0381111561382e578182fd5b61378288828901613600565b6000806040838503121561384c578182fd5b823561385781614411565b915060208301356136db81614426565b60008060408385031215613879578182fd5b823561388481614411565b946020939093013593505050565b60008060006060848603121561368e578081fd5b600080600080600080606087890312156138be578384fd5b86356001600160401b03808211156138d4578586fd5b6138e08a838b016134d3565b909850965060208901359150808211156138f8578586fd5b6139048a838b016134d3565b9096509450604089013591508082111561391c578283fd5b5061392989828a016134d3565b979a9699509497509295939492505050565b60006020828403121561394c578081fd5b81356001600160401b03811115613961578182fd5b61396d8482850161351c565b949350505050565b60008060008060006060868803121561398c578283fd5b85356001600160401b03808211156139a2578485fd5b6139ae89838a0161351c565b965060208801359150808211156139c3578485fd5b6139cf89838a016134d3565b909650945060408801359150808211156139e7578283fd5b506139f4888289016134d3565b969995985093965092949392505050565b60008060408385031215613a17578182fd5b82356001600160401b0380821115613a2d578384fd5b613a398683870161351c565b93506020850135915080821115613a4e578283fd5b50613a5b85828601613599565b9150509250929050565b60008060008060408587031215613a7a578182fd5b84356001600160401b0380821115613a90578384fd5b613a9c888389016134d3565b90965094506020870135915080821115613ab4578384fd5b50613ac1878288016134d3565b95989497509550505050565b600060208284031215613ade578081fd5b8151610c7d81614426565b600060208284031215613afa578081fd5b8135610c7d81614434565b600060208284031215613b16578081fd5b8151610c7d81614434565b60008060208385031215613b33578182fd5b82356001600160401b03811115613b48578283fd5b613b548582860161361f565b90969095509350505050565b600060208284031215613b71578081fd5b5035919050565b600060208284031215613b89578081fd5b5051919050565b60008060408385031215613ba2578182fd5b8235915060208301356136db81614426565b600080600060408486031215613bc8578081fd5b8335925060208401356001600160401b03811115613be4578182fd5b613bf08682870161361f565b9497909650939450505050565b60008060008060808587031215613c12578182fd5b8435935060208501356001600160401b03811115613c2e578283fd5b8501601f81018713613c3e578283fd5b613c4d87823560208401613476565b9350506040850135613c5e81614426565b91506060850135613c6e81614411565b939692955090935050565b6000815180845260208085019450808401835b83811015613ca857815187529582019590820190600101613c8c565b509495945050505050565b60008151808452613ccb81602086016020860161427c565b601f01601f19169290920160200192915050565b60008351613cf181846020880161427c565b835190830190613d0581836020880161427c565b01949350505050565b6001600160a01b0386811682528516602082015260a060408201819052600090613d3a90830186613c79565b8281036060840152613d4c8186613c79565b90508281036080840152613d608185613cb3565b98975050505050505050565b6001600160a01b03868116825285166020820152604081018490526060810183905260a060808201819052600090613da690830184613cb3565b979650505050505050565b6020808252825182820181905260009190848201906040850190845b81811015613df25783516001600160a01b031683529284019291840191600101613dcd565b50909695505050505050565b602081526000610c7d6020830184613c79565b604081526000613e246040830185613c79565b8281036020840152613e368185613c79565b95945050505050565b6040815282604082015282846060830137600060608483018101919091529115156020820152601f909201601f191690910101919050565b602081526000610c7d6020830184613cb3565b604081526000613e9d6040830185613cb3565b905082151560208301529392505050565b606081526000613ec16060830186613cb3565b9315156020830152506001600160a01b0391909116604090910152919050565b60408152600080845482600182811c915080831680613f0157607f831692505b6020808410821415613f2157634e487b7160e01b87526022600452602487fd5b6040880184905260608801828015613f405760018114613f5157613f7b565b60ff19871682528282019750613f7b565b60008c815260209020895b87811015613f7557815484820152908601908401613f5c565b83019850505b5050859650613f8d8189018a15159052565b5050505050509392505050565b60208082526028908201527f455243313135353a204552433131353552656365697665722072656a656374656040820152676420746f6b656e7360c01b606082015260800190565b602080825260149082015273092dce0eae840c2e4e4c2f240dad2e6dac2e8c6d60631b604082015260600190565b602080825260139082015272151a595c88191bd95cc81b9bdd08195e1a5cdd606a1b604082015260600190565b60208082526010908201526f14185d5cd8589b194e881c185d5cd95960821b604082015260600190565b60208082526025908201527f455243313135353a207472616e7366657220746f20746865207a65726f206164604082015264647265737360d81b606082015260800190565b6020808252602a908201527f455243313135353a20696e73756666696369656e742062616c616e636520666f60408201526939103a3930b739b332b960b11b606082015260800190565b6020808252818101527f4f776e61626c653a2063616c6c6572206973206e6f7420746865206f776e6572604082015260600190565b6020808252600f908201526e1d1c985b9cd9995c8819985a5b1959608a1b604082015260600190565b602080825260169082015275537472696e672063616e6e6f7420626520656d70747960501b604082015260600190565b6000808335601e1984360301811261419a578283fd5b8301803591506001600160401b038211156141b3578283fd5b60200191503681900382131561351557600080fd5b60006001600160401b038211156141e1576141e161435a565b5060051b60200190565b600082198211156141fe576141fe614344565b500190565b60008261421e57634e487b7160e01b81526012600452602481fd5b500490565b600081600019048311821515161561423d5761423d614344565b500290565b60008282101561425457614254614344565b500390565b600060ff821660ff84168082101561427357614273614344565b90039392505050565b60005b8381101561429757818101518382015260200161427f565b8381111561174e5750506000910152565b600181811c908216806142bc57607f821691505b6020821081141561157a57634e487b7160e01b600052602260045260246000fd5b601f8201601f191681016001600160401b03811182821017156143025761430261435a565b6040525050565b600060001982141561431d5761431d614344565b5060010190565b600060ff821660ff81141561433b5761433b614344565b60010192915050565b634e487b7160e01b600052601160045260246000fd5b634e487b7160e01b600052604160045260246000fd5b600060033d111561438557600481823e5160e01c5b90565b600060443d10156143965790565b6040516003193d81016004833e81513d6001600160401b0381602484011181841117156143c557505050505090565b82850191508151818111156143dd5750505050505090565b843d87010160208285010111156143f75750505050505090565b614406602082860101876142dd565b509095945050505050565b6001600160a01b0381168114611f3057600080fd5b8015158114611f3057600080fd5b6001600160e01b031981168114611f3057600080fdfea26469706673582212203010e2eac6049ef519acfad6f9860358af0ec8163bc62f5dd38c0f565c594bc764736f6c63430008040033",
  "devdoc": {
    "kind": "dev",
    "methods": {
      "balanceOf(address,uint256)": {
        "details": "See {IERC1155-balanceOf}. Requirements: - `account` cannot be the zero address."
      },
      "balanceOfBatch(address[],uint256[])": {
        "details": "See {IERC1155-balanceOfBatch}. Requirements: - `accounts` and `ids` must have the same length."
      },
      "burn(address,uint256,uint256)": {
        "details": "burns specified amount token(s) of specific id from specified account",
        "params": {
          "account": "address of token holder",
          "amount": "units of token to be burnt from beneficiary",
          "id": "id of token, aka. tier"
        }
      },
      "burnFromMultiple(address[],uint256[],uint256[])": {
        "details": "burns from multiple addresses arbitrary units of tokens of ONE token id per address                      example: burn 3 units of tokenId 1 from alice and 4 units of tokenId 2 froms bob",
        "params": {
          "accounts": "list of token holder addresses",
          "amounts": "list of burn amounts",
          "tokenIds": "list of token ids (aka tiers)"
        }
      },
      "changeBaseUri(string)": {
        "details": "sets a base uri, that is the first part of the url where the metadata for a tokenId is stored",
        "params": {
          "_newBaseUri": "baseUrl (e.g. www.filestoring.com/)"
        }
      },
      "createTokenTier(uint256,string,bool,address)": {
        "details": "creates a new token tier",
        "params": {
          "tokenId": "identifier for the new token tier",
          "transferable": "determines if tokens from specific tier should be transferable or not",
          "uriId": "identifier that is appended to the baseUri together forming the uri where the metadata lives"
        }
      },
      "isApprovedForAll(address,address)": {
        "details": "See {IERC1155-isApprovedForAll}."
      },
      "mint(address,uint256,uint256)": {
        "details": "mints specified amount token(s) of specific id to specified account",
        "params": {
          "account": "beneficiary address",
          "amount": "units of token to be minted to beneficiary",
          "id": "id of token, aka. tier"
        }
      },
      "mintToMultiple(address[],uint256[],uint256[])": {
        "details": "mints to multiple addresses arbitrary units of tokens of ONE token id per address",
        "params": {
          "accounts": "list of beneficiary addresses",
          "amounts": "list of mint amounts",
          "tokenIds": "list of token ids (aka tiers)"
        }
      },
      "owner()": {
        "details": "Returns the address of the current owner."
      },
      "paused()": {
        "details": "Returns true if the contract is paused, and false otherwise."
      },
      "renounceOwnership()": {
        "details": "Leaves the contract without owner. It will not be possible to call `onlyOwner` functions anymore. Can only be called by the current owner. NOTE: Renouncing ownership will leave the contract without an owner, thereby removing any functionality that is only available to the owner."
      },
      "safeBatchTransferFrom(address,address,uint256[],uint256[],bytes)": {
        "details": "See {IERC1155-safeBatchTransferFrom}."
      },
      "safeTransferFrom(address,address,uint256,uint256,bytes)": {
        "details": "transfers tokens from one address to another allowing custom data parameter",
        "params": {
          "amount": "amount of token to be transferred",
          "from": "address from which token will be transferred",
          "id": "id of token to be transferred",
          "to": "recipient of address"
        }
      },
      "setApprovalForAll(address,bool)": {
        "details": "See {IERC1155-setApprovalForAll}."
      },
      "supportsInterface(bytes4)": {
        "details": "See {IERC165-supportsInterface}."
      },
      "transferFromWithoutData(address,address,uint256,uint256)": {
        "details": "transfers tokens from one address to another and uses 0x0 as default data parameter",
        "params": {
          "amount": "amount of token to be transferred",
          "from": "address from which token will be transferred",
          "id": "id of token to be transferred",
          "to": "recipient of address"
        }
      },
      "transferOwnership(address)": {
        "details": "Transfers ownership of the contract to a new account (`newOwner`). Can only be called by the current owner."
      },
      "updateMultipleUriIdentifiers(uint256[],string[])": {
        "details": "update uri identifiers for multiple token ids (tiers)",
        "params": {
          "tokenIds": "tokenIds for which the uri should be updated (must be in same order as uriIds)",
          "uriIds": "identifiers that are appended to the baseUri together forming the uri where the metadata lives (must be in same order ass tokenIds)"
        }
      },
      "updateTransferableStatus(uint256,bool)": {
        "details": "updates transferability for a given token id (tier)",
        "params": {
          "tokenId": "tokenId for which transferability should be updated",
          "transferable": "determines whether tokens from tier should be transferable or not"
        }
      },
      "updateUriIdentifier(uint256,string)": {
        "details": "updates the identifier that is appended to the baseUri for a specific tokenId (tier)",
        "params": {
          "tokenId": "tokenId for which the uri should be updated",
          "uriId": "identifier that is appended to the baseUri together forming the uri where the metadata lives"
        }
      },
      "uri(uint256)": {
        "details": "returns the uri for a given token",
        "params": {
          "tokenId": "tokenId for which the uri should be retrieved"
        }
      }
    },
    "version": 1
  },
  "userdoc": {
    "kind": "user",
    "methods": {
      "mintToMultiple(address[],uint256[],uint256[])": {
        "notice": "example: mint 3 units of tokenId 1 to alice and 4 units of tokenId 2 to bob"
      },
      "safeTransferFrom(address,address,uint256,uint256,bytes)": {
        "notice": "this is the standard transfer interface for ERC1155 tokens which contracts expect"
      },
      "transferFromWithoutData(address,address,uint256,uint256)": {
        "notice": "this is mainly used for manual contract interactions via etherscan"
      },
      "uri(uint256)": {
        "notice": "consists of a concatenation of baseUri and uriId"
      }
    },
    "version": 1
  },
  "storageLayout": {
    "storage": [
      {
        "astId": 7,
        "contract": "contracts/Karmic.sol:Karmic",
        "label": "_owner",
        "offset": 0,
        "slot": "0",
        "type": "t_address"
      },
      {
        "astId": 222,
        "contract": "contracts/Karmic.sol:Karmic",
        "label": "_balances",
        "offset": 0,
        "slot": "1",
        "type": "t_mapping(t_uint256,t_mapping(t_address,t_uint256))"
      },
      {
        "astId": 228,
        "contract": "contracts/Karmic.sol:Karmic",
        "label": "_operatorApprovals",
        "offset": 0,
        "slot": "2",
        "type": "t_mapping(t_address,t_mapping(t_address,t_bool))"
      },
      {
        "astId": 230,
        "contract": "contracts/Karmic.sol:Karmic",
        "label": "_uri",
        "offset": 0,
        "slot": "3",
        "type": "t_string_storage"
      },
      {
        "astId": 2491,
        "contract": "contracts/Karmic.sol:Karmic",
        "label": "tokenTiers",
        "offset": 0,
        "slot": "4",
        "type": "t_mapping(t_uint256,t_struct(TokenTier)2498_storage)"
      },
      {
        "astId": 122,
        "contract": "contracts/Karmic.sol:Karmic",
        "label": "_paused",
        "offset": 0,
        "slot": "5",
        "type": "t_bool"
      },
      {
        "astId": 3200,
        "contract": "contracts/Karmic.sol:Karmic",
        "label": "boxTokenTiers",
        "offset": 0,
        "slot": "6",
        "type": "t_mapping(t_address,t_struct(BoxToken)3217_storage)"
      },
      {
        "astId": 3202,
        "contract": "contracts/Karmic.sol:Karmic",
        "label": "boxTokenCounter",
        "offset": 0,
        "slot": "7",
        "type": "t_uint256"
      },
      {
        "astId": 3204,
        "contract": "contracts/Karmic.sol:Karmic",
        "label": "fee",
        "offset": 0,
        "slot": "8",
        "type": "t_uint256"
      }
    ],
    "types": {
      "t_address": {
        "encoding": "inplace",
        "label": "address",
        "numberOfBytes": "20"
      },
      "t_bool": {
        "encoding": "inplace",
        "label": "bool",
        "numberOfBytes": "1"
      },
      "t_mapping(t_address,t_bool)": {
        "encoding": "mapping",
        "key": "t_address",
        "label": "mapping(address => bool)",
        "numberOfBytes": "32",
        "value": "t_bool"
      },
      "t_mapping(t_address,t_mapping(t_address,t_bool))": {
        "encoding": "mapping",
        "key": "t_address",
        "label": "mapping(address => mapping(address => bool))",
        "numberOfBytes": "32",
        "value": "t_mapping(t_address,t_bool)"
      },
      "t_mapping(t_address,t_struct(BoxToken)3217_storage)": {
        "encoding": "mapping",
        "key": "t_address",
        "label": "mapping(address => struct Karmic.BoxToken)",
        "numberOfBytes": "32",
        "value": "t_struct(BoxToken)3217_storage"
      },
      "t_mapping(t_address,t_uint256)": {
        "encoding": "mapping",
        "key": "t_address",
        "label": "mapping(address => uint256)",
        "numberOfBytes": "32",
        "value": "t_uint256"
      },
      "t_mapping(t_uint256,t_mapping(t_address,t_uint256))": {
        "encoding": "mapping",
        "key": "t_uint256",
        "label": "mapping(uint256 => mapping(address => uint256))",
        "numberOfBytes": "32",
        "value": "t_mapping(t_address,t_uint256)"
      },
      "t_mapping(t_uint256,t_struct(TokenTier)2498_storage)": {
        "encoding": "mapping",
        "key": "t_uint256",
        "label": "mapping(uint256 => struct Badger.TokenTier)",
        "numberOfBytes": "32",
        "value": "t_struct(TokenTier)2498_storage"
      },
      "t_string_storage": {
        "encoding": "bytes",
        "label": "string",
        "numberOfBytes": "32"
      },
      "t_struct(BoxToken)3217_storage": {
        "encoding": "inplace",
        "label": "struct Karmic.BoxToken",
        "members": [
          {
            "astId": 3206,
            "contract": "contracts/Karmic.sol:Karmic",
            "label": "id",
            "offset": 0,
            "slot": "0",
            "type": "t_uint256"
          },
          {
            "astId": 3208,
            "contract": "contracts/Karmic.sol:Karmic",
            "label": "amount",
            "offset": 0,
            "slot": "1",
            "type": "t_uint256"
          },
          {
            "astId": 3210,
            "contract": "contracts/Karmic.sol:Karmic",
            "label": "funds",
            "offset": 0,
            "slot": "2",
            "type": "t_uint256"
          },
          {
            "astId": 3212,
            "contract": "contracts/Karmic.sol:Karmic",
            "label": "distributed",
            "offset": 0,
            "slot": "3",
            "type": "t_uint256"
          },
          {
            "astId": 3214,
            "contract": "contracts/Karmic.sol:Karmic",
            "label": "passedThreshold",
            "offset": 0,
            "slot": "4",
            "type": "t_bool"
          },
          {
            "astId": 3216,
            "contract": "contracts/Karmic.sol:Karmic",
            "label": "threshold",
            "offset": 0,
            "slot": "5",
            "type": "t_uint256"
          }
        ],
        "numberOfBytes": "192"
      },
      "t_struct(TokenTier)2498_storage": {
        "encoding": "inplace",
        "label": "struct Badger.TokenTier",
        "members": [
          {
            "astId": 2493,
            "contract": "contracts/Karmic.sol:Karmic",
            "label": "uriId",
            "offset": 0,
            "slot": "0",
            "type": "t_string_storage"
          },
          {
            "astId": 2495,
            "contract": "contracts/Karmic.sol:Karmic",
            "label": "transferable",
            "offset": 0,
            "slot": "1",
            "type": "t_bool"
          },
          {
            "astId": 2497,
            "contract": "contracts/Karmic.sol:Karmic",
            "label": "boxToken",
            "offset": 1,
            "slot": "1",
            "type": "t_address"
          }
        ],
        "numberOfBytes": "64"
      },
      "t_uint256": {
        "encoding": "inplace",
        "label": "uint256",
        "numberOfBytes": "32"
      }
    }
  }
}