{
  "address": "0x5FbDB2315678afecb367f032d93F642f64180aa3",
  "abi": [
    {
      "inputs": [
        {
          "internalType": "address[]",
          "name": "tokens",
          "type": "address[]"
        }
      ],
      "name": "addBoxTokens",
      "outputs": [],
      "stateMutability": "nonpayable",
      "type": "function"
    },
    {
      "inputs": [],
      "name": "getBoxTokens",
      "outputs": [
        {
          "internalType": "address[]",
          "name": "boxTokens",
          "type": "address[]"
        }
      ],
      "stateMutability": "view",
      "type": "function"
    }
  ],
  "transactionHash": "0x3ba4530da0c78fcb72c211028511859003a3c725e375454f30420668df83ef61",
  "args": [],
  "numDeployments": 1,
  "solcInputHash": "b01c45356c6fa8dbd220dd04f0a5ce14",
  "bytecode": "0x608060405234801561001057600080fd5b50610634806100206000396000f3fe608060405234801561001057600080fd5b50600436106100365760003560e01c806365cfacaa1461003b578063732a4d3114610057575b600080fd5b6100556004803603810190610050919061036c565b610075565b005b61005f610141565b60405161006c9190610432565b60405180910390f35b60005b81518160ff16101561013d576000828260ff16815181106100c2577f4e487b7100000000000000000000000000000000000000000000000000000000600052603260045260246000fd5b60200260200101519080600181540180825580915050600190039060005260206000200160009091909190916101000a81548173ffffffffffffffffffffffffffffffffffffffff021916908373ffffffffffffffffffffffffffffffffffffffff16021790555080806101359061054e565b915050610078565b5050565b606060008054905067ffffffffffffffff811115610188577f4e487b7100000000000000000000000000000000000000000000000000000000600052604160045260246000fd5b6040519080825280602002602001820160405280156101b65781602001602082028036833780820191505090505b50905060005b6000805490508160ff1610156102bd5760008160ff1681548110610209577f4e487b7100000000000000000000000000000000000000000000000000000000600052603260045260246000fd5b9060005260206000200160009054906101000a900473ffffffffffffffffffffffffffffffffffffffff16828260ff1681518110610270577f4e487b7100000000000000000000000000000000000000000000000000000000600052603260045260246000fd5b602002602001019073ffffffffffffffffffffffffffffffffffffffff16908173ffffffffffffffffffffffffffffffffffffffff168152505080806102b59061054e565b9150506101bc565b5090565b60006102d46102cf84610479565b610454565b905080838252602082019050828560208602820111156102f357600080fd5b60005b858110156103235781610309888261032d565b8452602084019350602083019250506001810190506102f6565b5050509392505050565b60008135905061033c816105e7565b92915050565b600082601f83011261035357600080fd5b81356103638482602086016102c1565b91505092915050565b60006020828403121561037e57600080fd5b600082013567ffffffffffffffff81111561039857600080fd5b6103a484828501610342565b91505092915050565b60006103b983836103c5565b60208301905092915050565b6103ce816104de565b82525050565b60006103df826104b5565b6103e981856104cd565b93506103f4836104a5565b8060005b8381101561042557815161040c88826103ad565b9750610417836104c0565b9250506001810190506103f8565b5085935050505092915050565b6000602082019050818103600083015261044c81846103d4565b905092915050565b600061045e61046f565b905061046a828261051d565b919050565b6000604051905090565b600067ffffffffffffffff821115610494576104936105a7565b5b602082029050602081019050919050565b6000819050602082019050919050565b600081519050919050565b6000602082019050919050565b600082825260208201905092915050565b60006104e9826104f0565b9050919050565b600073ffffffffffffffffffffffffffffffffffffffff82169050919050565b600060ff82169050919050565b610526826105d6565b810181811067ffffffffffffffff82111715610545576105446105a7565b5b80604052505050565b600061055982610510565b915060ff82141561056d5761056c610578565b5b600182019050919050565b7f4e487b7100000000000000000000000000000000000000000000000000000000600052601160045260246000fd5b7f4e487b7100000000000000000000000000000000000000000000000000000000600052604160045260246000fd5b6000601f19601f8301169050919050565b6105f0816104de565b81146105fb57600080fd5b5056fea26469706673582212206b2171f89826343f161a08eabb63282f1503c79a7173d7a03ba699dba8a43ce464736f6c63430008040033",
  "devdoc": {
    "kind": "dev",
    "methods": {},
    "version": 1
  },
  "userdoc": {
    "kind": "user",
    "methods": {},
    "version": 1
  },
  "storageLayout": {
    "storage": [
      {
        "astId": 83,
        "contract": "contracts/Karmic.sol:Karmic",
        "label": "_boxTokens",
        "offset": 0,
        "slot": "0",
        "type": "t_array(t_address)dyn_storage"
      }
    ],
    "types": {
      "t_address": {
        "encoding": "inplace",
        "label": "address",
        "numberOfBytes": "20"
      },
      "t_array(t_address)dyn_storage": {
        "base": "t_address",
        "encoding": "dynamic_array",
        "label": "address[]",
        "numberOfBytes": "32"
      }
    }
  }
}